:020000040000FA
:060000000A128A11FC2F18
:100F2A008316031386018312031306141030F2008A
:100F3A003930F1000D30F000F00BA12FF10BA12F89
:100F4A00F20BA12FA82F8312031306101030F20000
:100F5A003930F1000D30F000F00BB12FF10BB12F49
:100F6A00F20BB12FB82F8312031386140B30F20041
:100F7A002630F1005D30F000F00BC12FF10BC12FCC
:100F8A00F20BC12FC82F8312031386100B30F20005
:100F9A002630F1005D30F000F00BD12FF10BD12F8C
:100FAA00F20BD12FD82F8312031306150630F20045
:100FBA001330F100AD30F000F00BE12FF10BE12F0F
:100FCA00F20BE12FE82F8312031306110630F20009
:100FDA001330F100AD30F000F00BF12FF10BF12FCF
:100FEA00F20BF12FF82F982F0A128A110028830189
:060FFA000A128A11952F76
:02400E00FB3F76
:00000001FF
